:100000000C9456000C9460000C9460000C946000FA
:100010000C9460000C9460000C9460000C946000E0
:100020000C9460000C9460000C9460000C946000D0
:100030000C9460000C9460000C9460000C946000C0
:100040000C9460000C9460000C9460000C946000B0
:100050000C9460000C9460000C9460000C946000A0
:100060000C9460000C9460000C9460000C94600090
:100070000C9460000C9460000C9460000C94600080
:100080000C9460000C9460000C9460000C94600070
:100090000C9460000C9460000C9460000C94600060
:1000A0000C9460000C9460000C94600011241FBE3E
:1000B000CFEFDAE0DEBFCDBF0E9468000C946A018A
:1000C0000C940000E1E6F0E080E88083108208955F
:1000D000CF93DF9300D0CDB7DEB70E9462000E94BD
:1000E0004B010E94C80084B1836084B985B18C7FC4
:1000F00085B987B1806887B988B18F7788B980EA78
:100100009FE00E94F9000F2EF8E8CF2EF3E1DF2EDA
:10011000F02D2FEF89E698E1215080409040E1F7E3
:1001200000C0000080E886B90E946301F82E80E0DC
:100130000E94E3009A83898300E010E012C0F80176
:10014000EE0FFF1F81E090E08C0F9D1FE80FF91F5D
:10015000E18080810E945C018E2D0E945C010F5F16
:100160001F4F101611065CF7F11004C094E6C91A6F
:10017000D10806C021E0F21203C084E6C80ED11CEB
:10018000B60181E00E94150181E00E942E01C1CFDD
:1001900010927C00EAE7F0E080818560808308951A
:1001A000EAE7F0E090819F779083803158F4ECE7A4
:1001B000F0E09081907F892B8083EAE7F0E08081F6
:1001C0008068808308950E94D000EAE7F0E0808193
:1001D0008064808380917A0084FFFCCFEAE7F0E0BE
:1001E00080818F7E808380917800909179009370D8
:1001F000089552E0509380004AE1409381009C01B1
:1002000021503109309387002093860094B1906E7D
:1002100094B95093900040939100309397002093AD
:10022000960087B1806487B9089580FF04C07093F9
:1002300089006093880081FF04C070938B006093F5
:100240008A0082FF04C070938D0060938C0083FF4E
:1002500004C07093990060939800089580FF05C0D2
:10026000E0E8F0E090819068908381FF05C0E0E8CD
:10027000F0E090819062908382FF05C0E0E8F0E0BA
:1002800090819860908383FF05C0E0E9F0E0808171
:1002900080688083089588E090E09093CD008093FB
:1002A000CC001092C80088E18093C90086E080935A
:1002B000CA001092CB0008959091C80095FFFCCF22
:1002C0008093CE0008958091C8008823E4F7809140
:0802D000CE000895F894FFCF61
:00000001FF
